:1000000062C0000085C0000083C0000081C0000005
:100010007FC000007DC000007BC0000079C00000F0
:1000200077C0000075C0000073C0000071C0000000
:100030006FC000006DC000006BC0000069C0000010
:1000400040C3000065C0000066C2000096C2000008
:100050005FC000005DC000005BC0000059C0000030
:1000600057C0000055C00000000000080002010059
:100070000003040700000000000000000102040863
:100080001020408001020408102001020408102002
:10009000040404040404040402020202020203032E
:1000A00003030303000000002300260029000000D2
:1000B0000000250028002B0000000000240027007D
:1000C0002A002F01EB0211241FBECFEFD8E0DEBFC4
:1000D000CDBF11E0A0E0B1E0E6E8F9E002C0059094
:1000E0000D92AE34B107D9F722E0AEE4B1E001C021
:1000F0001D92A230B207E1F710E0C6ECD0E003C0D9
:100100002297FE013AD4C23CD107D1F7D0D239C4EC
:1001100077CF26E040E855E260E070E08CE591E0C2
:100120009AD160E083E0A4D360E084E0A1D360E0F2
:1001300085E09EC384E0D5D321E0892B09F420E03B
:10014000822F089580E04ED321E08F3591400CF44A
:1001500020E0822F0895E0915C01F0915D01028022
:10016000F381E02D43E050E061E071E08CE591E047
:1001700009940F931F93DEDF882309F464C0EBD248
:100180000091500110915101209152013091530181
:10019000601B710B820B930B61327E4481059105CC
:1001A00018F085E091E0D7DFD6D200915801109188
:1001B000590120915A0130915B01601B710B820B38
:1001C000930B61367A4E8105910568F010924F01CC
:1001D00010924E01C0D260935401709355018093E8
:1001E000560190935701B7D20091580110915901CF
:1001F00020915A0130915B01601B710B820B930BB4
:10020000613D77408105910538F19CDF8823D9F065
:10021000A2D2609350017093510180935201909348
:10022000530180914E0190914F01019690934F019F
:1002300080934E010B973CF084E291E08CDF1092AA
:100240004F0110924E0187D260935801709359016B
:1002500080935A0190935B011F910F9108957BD277
:10026000609358017093590180935A0190935B01F8
:1002700072D260935401709355018093560190930C
:10028000570169D2609350017093510180935201DC
:10029000909353010895FC01818D228D90E0805C44
:1002A0009F4F821B91098F7399270895FC01918DAF
:1002B000828D981731F0828DE80FF11D858D90E0C9
:1002C00008958FEF9FEF0895FC01918D828D98170F
:1002D00061F0828DDF01A80FB11D5D968C91928D2A
:1002E0009F5F9F73928F90E008958FEF9FEF089527
:1002F00082EE92E0892B41F080E090E0892B21F0A2
:1003000061D181110C9400000895FC01848DDF01FE
:10031000A80FB11DA35ABF4F2C91848D90E0019678
:100320008F739927848FA689B7892C93A089B18967
:100330008C9180648C93938D848D981306C0028871
:10034000F389E02D80818F7D80830895CF93DF93A3
:10035000EC01888D8823C1F0EA89FB89808185FDC5
:1003600005C0A889B9898C9186FD0EC00FB607FC1F
:10037000F5CF808185FFF2CFA889B9898C9185FF5F
:10038000EDCFCE01C2DFE8CFDF91CF910895CF92BC
:10039000DF92FF920F931F93CF93DF931F92CDB7FE
:1003A000DEB76C0181E0D60158968C9358975B9626
:1003B0009C915B975C968C915C97981307C05096C4
:1003C000ED91FC915197808185FD2DC0F601038D43
:1003D00010E00F5F1F4F0F731127F02EF601848D71
:1003E000F81210C00FB607FCF9CFD6015096ED9168
:1003F000FC915197808185FFF1CFC601698385DF2C
:100400006981ECCF838DE80FF11DE35AFF4F6083C4
:10041000D6015B960C935B975296ED91FC915397A6
:10042000808180620CC0D6015696ED91FC91579761
:1004300060835096ED91FC91519780818064808318
:1004400081E090E00F90DF91CF911F910F91FF908D
:10045000DF90CF900895BF92CF92DF92EF92FF92FC
:10046000CF93DF93EC016A017B01B22EE889F98911
:1004700082E08083411581EE58076105710599F08E
:1004800060E079E08DE390E0A701960152D221501F
:1004900031094109510956954795379527952115F9
:1004A00080E1380790F0E889F989108260E874E803
:1004B0008EE190E0A70196013CD22150310941091B
:1004C00051095695479537952795EC85FD853083DD
:1004D000EE85FF852083188EEC89FD89B082EA893C
:1004E000FB89808180618083EA89FB8980818860C3
:1004F0008083EA89FB89808180688083EA89FB891F
:1005000080818F7D8083DF91CF91FF90EF90DF908E
:10051000CF90BF9008951F920F920FB60F921124A3
:100520002F938F939F93EF93FF93E0916C01F09142
:100530006D018081E0917201F091730182FD12C022
:100540009081809175018F5F8F7320917601821762
:1005500051F0E0917501F0E0E45AFE4F958F8093E1
:10056000750101C08081FF91EF919F918F912F9133
:100570000F900FBE0F901F9018951F920F920FB6FD
:100580000F9211242F933F934F935F936F937F9319
:100590008F939F93AF93BF93EF93FF938CE591E07D
:1005A000B4DEFF91EF91BF91AF919F918F917F91B9
:1005B0006F915F914F913F912F910F900FBE0F90D0
:1005C0001F9018958CE591E066DE21E0892B09F4F7
:1005D00020E0822F089510925F0110925E0188EE54
:1005E00093E0A0E0B0E08093600190936101A0935C
:1005F0006201B093630182E491E090935D01809386
:100600005C0185EC90E0909369018093680184EC33
:1006100090E090936B0180936A0180EC90E090935E
:100620006D0180936C0181EC90E090936F01809359
:100630006E0182EC90E0909371018093700186ECE2
:1006400090E0909373018093720110927501109263
:10065000760110927701109278010895CF92DF927F
:10066000EF92FF920F931F93CF93DF937C016A0168
:10067000EB0100E010E00C151D0571F06991D70148
:10068000ED91FC910190F081E02DC7010995892B36
:1006900019F00F5F1F4FEFCFC801DF91CF911F916E
:1006A0000F91FF90EF90DF90CF90089508955FD065
:1006B000FDDF2FDDC8E7D1E05CDD2097E9F318DE30
:1006C000FBCF1F920F920FB60F9211242F933F93DF
:1006D0008F939F93AF93BF938091FA019091FB0109
:1006E000A091FC01B091FD013091F90123E0230FAD
:1006F0002D3720F40196A11DB11D05C026E8230F5A
:100700000296A11DB11D2093F9018093FA019093E7
:10071000FB01A093FC01B093FD018091FE0190913B
:10072000FF01A0910002B09101020196A11DB11D2F
:100730008093FE019093FF01A0930002B093010209
:10074000BF91AF919F918F913F912F910F900FBECD
:100750000F901F9018952FB7F8946091FA0170913F
:10076000FB018091FC019091FD012FBF08957894C9
:1007700084B5826084BD84B5816084BD85B58260A6
:1007800085BD85B5816085BDEEE6F0E08081816044
:100790008083E1E8F0E01082808182608083808144
:1007A00081608083E0E8F0E0808181608083E1EB1C
:1007B000F0E0808184608083E0EBF0E08081816004
:1007C0008083EAE7F0E080818460808380818260BA
:1007D00080838081816080838081806880831092A3
:1007E000C10008958E3008F08E508770209100016E
:1007F00090E4299F90011124822B80937C008091AA
:100800007A00806480937A0080917A0086FDFCCF24
:10081000809178002091790090E0922B08958330A8
:1008200081F028F4813099F08230A1F0089587306A
:10083000A9F08830B9F08430D1F4809180008F7DA8
:1008400003C0809180008F7780938000089584B5E5
:100850008F7702C084B58F7D84BD08958091B000EC
:100860008F7703C08091B0008F7D8093B000089592
:10087000CF93DF9390E0FC01E458FF4F2491FC01FB
:10088000E057FF4F8491882349F190E0880F991F2A
:10089000FC01E854FF4FA591B49182559F4FFC0194
:1008A000C591D4919FB7611108C0F8948C9120959F
:1008B00082238C93888182230AC0623051F4F89499
:1008C0008C91322F309583238C938881822B88835F
:1008D00004C0F8948C91822B8C939FBFDF91CF91B1
:1008E0000895CF93DF93282F30E0F901E859FF4FA7
:1008F0008491F901E458FF4FD491F901E057FF4F7B
:10090000C491CC2389F081118ADFEC2FF0E0EE0F47
:10091000FF1FEC55FF4FA591B4912C912D2381E041
:1009200090E021F480E002C080E090E0DF91CF9180
:100930000895A1E21A2EAA1BBB1BFD010DC0AA1F20
:10094000BB1FEE1FFF1FA217B307E407F50720F038
:10095000A21BB30BE40BF50B661F771F881F991FB3
:100960001A9469F760957095809590959B01AC01FC
:10097000BD01CF010895EE0FFF1F0590F491E02D0A
:060980000994F894FFCF7A
:1009860001534D53004E6F206D6F76656D656E7425
:1009960020696E206C617374203130207365636F3B
:1009A6006E6473003130206D6F76656D656E74739D
:1009B60020696E2031206D696E7574652100000016
:0E09C6000000C7012E034B0164015601A6017B
:00000001FF
